{
  "_format": "hh-sol-artifact-1",
  "contractName": "L1ERC20Bridge",
  "sourceName": "cache/solpp-generated-contracts/bridge/L1ERC20Bridge.sol",
  "abi": [
    {
      "inputs": [
        {
          "internalType": "contract IMailbox",
          "name": "_mailbox",
          "type": "address"
        }
      ],
      "stateMutability": "nonpayable",
      "type": "constructor"
    },
    {
      "inputs": [
        {
          "internalType": "address",
          "name": "_depositSender",
          "type": "address"
        },
        {
          "internalType": "address",
          "name": "_l1Token",
          "type": "address"
        },
        {
          "internalType": "bytes32",
          "name": "_l2TxHash",
          "type": "bytes32"
        },
        {
          "internalType": "uint32",
          "name": "_l2BlockNumber",
          "type": "uint32"
        },
        {
          "internalType": "uint256",
          "name": "_l2MessageIndex",
          "type": "uint256"
        },
        {
          "internalType": "bytes32[]",
          "name": "_merkleProof",
          "type": "bytes32[]"
        }
      ],
      "name": "claimFailedDeposit",
      "outputs": [],
      "stateMutability": "nonpayable",
      "type": "function"
    },
    {
      "inputs": [
        {
          "internalType": "address",
          "name": "_l2Receiver",
          "type": "address"
        },
        {
          "internalType": "address",
          "name": "_l1Token",
          "type": "address"
        },
        {
          "internalType": "uint256",
          "name": "_amount",
          "type": "uint256"
        },
        {
          "internalType": "enum QueueType",
          "name": "_queueType",
          "type": "uint8"
        }
      ],
      "name": "deposit",
      "outputs": [
        {
          "internalType": "bytes32",
          "name": "txHash",
          "type": "bytes32"
        }
      ],
      "stateMutability": "payable",
      "type": "function"
    },
    {
      "inputs": [
        {
          "internalType": "uint32",
          "name": "_l2BlockNumber",
          "type": "uint32"
        },
        {
          "internalType": "uint256",
          "name": "_l2MessageIndex",
          "type": "uint256"
        },
        {
          "internalType": "bytes",
          "name": "_message",
          "type": "bytes"
        },
        {
          "internalType": "bytes32[]",
          "name": "_merkleProof",
          "type": "bytes32[]"
        }
      ],
      "name": "finalizeWithdrawal",
      "outputs": [],
      "stateMutability": "nonpayable",
      "type": "function"
    },
    {
      "inputs": [
        {
          "internalType": "bytes",
          "name": "_l2BridgeBytecode",
          "type": "bytes"
        },
        {
          "internalType": "bytes",
          "name": "_l2StandardERC20Bytecode",
          "type": "bytes"
        }
      ],
      "name": "initialize",
      "outputs": [],
      "stateMutability": "nonpayable",
      "type": "function"
    },
    {
      "inputs": [],
      "name": "l2Bridge",
      "outputs": [
        {
          "internalType": "address",
          "name": "",
          "type": "address"
        }
      ],
      "stateMutability": "view",
      "type": "function"
    },
    {
      "inputs": [],
      "name": "l2StandardERC20BytecodeHash",
      "outputs": [
        {
          "internalType": "bytes32",
          "name": "",
          "type": "bytes32"
        }
      ],
      "stateMutability": "view",
      "type": "function"
    },
    {
      "inputs": [
        {
          "internalType": "address",
          "name": "_l1Token",
          "type": "address"
        }
      ],
      "name": "l2TokenAddress",
      "outputs": [
        {
          "internalType": "address",
          "name": "",
          "type": "address"
        }
      ],
      "stateMutability": "view",
      "type": "function"
    }
  ],
  "bytecode": "0x60a060405234801561001057600080fd5b5060405161183338038061183383398101604081905261002f91610040565b6001600160a01b0316608052610070565b60006020828403121561005257600080fd5b81516001600160a01b038116811461006957600080fd5b9392505050565b6080516117936100a0600039600081816103430152818161046701528181610641015261086001526117936000f3fe6080604052600436106100705760003560e01c8063882f6b961161004e578063882f6b96146100dd578063ae1f6aaf146100fd578063b4e5634a14610135578063f5f151681461014b57600080fd5b80631af19f7714610075578063772f7128146100975780637f63f618146100b7575b600080fd5b34801561008157600080fd5b50610095610090366004611147565b61016b565b005b3480156100a357600080fd5b506100956100b2366004611228565b6103fb565b6100ca6100c53660046112b1565b6105a8565b6040519081526020015b60405180910390f35b3480156100e957600080fd5b506100956100f8366004611304565b61076a565b34801561010957600080fd5b5060025461011d906001600160a01b031681565b6040516001600160a01b0390911681526020016100d4565b34801561014157600080fd5b506100ca60035481565b34801561015757600080fd5b5061011d61016636600461138e565b61098b565b6002546001600160a01b03161561018157600080fd5b6003541561018e57600080fd5b61019882826109d9565b6003556101a3610a89565b600354604080513060208201528082019290925280518083038201815260609092019052600090816101d587876109d9565b90506000631415dae260e01b84836000866040516024016101f9949392919061140c565b604051602081830303815290604052906001600160e01b0319166020820180516001600160e01b03838183161783525050505090506102413085848680519060200120610ad5565b600280546001600160a01b0319166001600160a01b03929092169190911781556040805182815260608101909152600091602082015b606081526020019060019003908161027757905050905088888080601f01602080910402602001604051908101604052809392919081815260200183838082843760009201829052508551869450909250151590506102d8576102d8611434565b602002602001018190525086868080601f01602080910402602001604051908101604052809392919081815260200183838082843760009201919091525050835184925060019150811061032e5761032e611434565b60209081029190910101526001600160a01b037f00000000000000000000000000000000000000000000000000000000000000001663b4848df56103756180006006611460565b84622000008560006040518663ffffffff1660e01b815260040161039d9594939291906114ad565b602060405180830381600087803b1580156103b757600080fd5b505af11580156103cb573d6000803e3d6000fd5b505050506040513d601f19601f820116820180604052508101906103ef919061153e565b50505050505050505050565b60008051602061173e833981519152546001811461041857600080fd5b600260008051602061173e833981519152556000604051806060016040528061800060016104469190611460565b6001600160a01b031681526020018881526020016000801b815250905060007f00000000000000000000000000000000000000000000000000000000000000006001600160a01b031663ee97667b88888589896040518663ffffffff1660e01b81526004016104b995949392919061158d565b60206040518083038186803b1580156104d157600080fd5b505afa1580156104e5573d6000803e3d6000fd5b505050506040513d601f19601f8201168201806040525081019061050991906115e1565b90508061051557600080fd5b6001600160a01b03808b166000908152600160209081526040808320938d1683529281528282208b8352905220548061054d57600080fd5b6001600160a01b03808c166000908152600160209081526040808320938e1683529281528282208c83529052908120556105888b8b83610b45565b50505050600160008051602061173e833981519152555050505050505050565b60008051602061173e83398151915254600090600181146105c857600080fd5b600260008051602061173e8339815191525560006105e7338787610cb7565b9050600081116106235760405162461bcd60e51b81526020600482015260026024820152610c5560f21b60448201526064015b60405180910390fd5b600061063133898985610e25565b6002549091506001600160a01b037f000000000000000000000000000000000000000000000000000000000000000081169163b4848df591349116846220000060006040519080825280602002602001820160405280156106a657816020015b60608152602001906001900390816106915790505b508b6040518763ffffffff1660e01b81526004016106c89594939291906114ad565b6020604051808303818588803b1580156106e157600080fd5b505af11580156106f5573d6000803e3d6000fd5b50505050506040513d601f19601f8201168201806040525081019061071a919061153e565b3360009081526001602081815260408084206001600160a01b039c909c1684529a81528a83208484529052989020929092555060008051602061173e833981519152959095555092949350505050565b60008051602061173e833981519152546001811461078757600080fd5b600260008051602061173e8339815191525563ffffffff871660009081526020818152604080832089845290915290205460ff16156107ed5760405162461bcd60e51b8152602060048201526002602482015261707760f01b604482015260640161061a565b6040805180820182526002546001600160a01b0316815281516020601f8801819004810282018101909352868152600092808301919089908990819084018382808284376000920182905250939094525050602083015192935091829150819061085690610e91565b92509250925060007f00000000000000000000000000000000000000000000000000000000000000006001600160a01b03166352390d8d8d8d888c8c6040518663ffffffff1660e01b81526004016108b2959493929190611603565b60206040518083038186803b1580156108ca57600080fd5b505afa1580156108de573d6000803e3d6000fd5b505050506040513d601f19601f8201168201806040525081019061090291906115e1565b9050806109365760405162461bcd60e51b81526020600482015260026024820152616e7160f01b604482015260640161061a565b63ffffffff8c166000908152602081815260408083208e84529091529020805460ff1916600117905561096a848484610b45565b505050505050600160008051602061173e8339815191525550505050505050565b6002546003546000917fc5d2460186f7233c927e7db2dcc703c0e500b653ca82273b7bfad8045d85a470916001600160a01b03808616926109d192911690839085610ad5565b949350505050565b6000806109e7602084611664565b9050620100008110610a205760405162461bcd60e51b8152602060048201526002602482015261070760f41b604482015260640161061a565b60028484604051610a32929190611686565b602060405180830381855afa158015610a4f573d6000803e3d6000fd5b5050506040513d601f19601f82011682018060405250810190610a72919061153e565b6001600160f01b031660f09190911b179392505050565b60008051602061173e833981519152805460019091558015610ad25760405162461bcd60e51b815260206004820152600260248201526118a160f11b604482015260640161061a565b50565b604080517f2020dba91b30cc0006188af794c2fb30dd8520db7e2c088b7fc7c103c00ca4946020808301919091526001600160a01b0396909616818301526060810194909452608084019290925260a0808401919091528151808403909101815260c09092019052805191012090565b6040516370a0823160e01b815230600482015260009081906001600160a01b038516906370a082319060240160206040518083038186803b158015610b8957600080fd5b505afa158015610b9d573d6000803e3d6000fd5b505050506040513d601f19601f82011682018060405250810190610bc1919061153e565b60405163a9059cbb60e01b81526001600160a01b038781166004830152602482018690529192509085169063a9059cbb90604401600060405180830381600087803b158015610c0f57600080fd5b505af1158015610c23573d6000803e3d6000fd5b50506040516370a0823160e01b8152306004820152600092506001600160a01b03871691506370a082319060240160206040518083038186803b158015610c6957600080fd5b505afa158015610c7d573d6000803e3d6000fd5b505050506040513d601f19601f82011682018060405250810190610ca1919061153e565b9050610cad8183611696565b9695505050505050565b6040516370a0823160e01b815230600482015260009081906001600160a01b038516906370a082319060240160206040518083038186803b158015610cfb57600080fd5b505afa158015610d0f573d6000803e3d6000fd5b505050506040513d601f19601f82011682018060405250810190610d33919061153e565b6040516323b872dd60e01b81526001600160a01b03878116600483015230602483015260448201869052919250908516906323b872dd90606401600060405180830381600087803b158015610d8757600080fd5b505af1158015610d9b573d6000803e3d6000fd5b50506040516370a0823160e01b8152306004820152600092506001600160a01b03871691506370a082319060240160206040518083038186803b158015610de157600080fd5b505afa158015610df5573d6000803e3d6000fd5b505050506040513d601f19601f82011682018060405250810190610e19919061153e565b9050610cad8282611696565b60606000610e3284610f3a565b905063cfe7af7c60e01b8686868685604051602401610e559594939291906116ad565b60408051601f198184030181529190526020810180516001600160e01b03166001600160e01b0319909316929092179091529695505050505050565b60008060008351604c14610ecc5760405162461bcd60e51b81526020600482015260026024820152616b6b60f01b604482015260640161061a565b60048481015190634417b5cb60e11b6001600160e01b031960e084901b1614610f1c5760405162461bcd60e51b81526020600482015260026024820152611b9d60f21b604482015260640161061a565b60149501948501516028860151604890960151909690945092505050565b60408051600481526024810182526020810180516001600160e01b03166306fdde0360e01b17905290516060916000916001600160a01b03851691610f7e916116e8565b600060405180830381855afa9150503d8060008114610fb9576040519150601f19603f3d011682016040523d82523d6000602084013e610fbe565b606091505b5060408051600481526024810182526020810180516001600160e01b03166395d89b4160e01b1790529051919350600092506001600160a01b0386169161100591906116e8565b600060405180830381855afa9150503d8060008114611040576040519150601f19603f3d011682016040523d82523d6000602084013e611045565b606091505b5060408051600481526024810182526020810180516001600160e01b031663313ce56760e01b1790529051919350600092506001600160a01b0387169161108c91906116e8565b600060405180830381855afa9150503d80600081146110c7576040519150601f19603f3d011682016040523d82523d6000602084013e6110cc565b606091505b509150508282826040516020016110e593929190611704565b6040516020818303038152906040529350505050919050565b60008083601f84011261111057600080fd5b50813567ffffffffffffffff81111561112857600080fd5b60208301915083602082850101111561114057600080fd5b9250929050565b6000806000806040858703121561115d57600080fd5b843567ffffffffffffffff8082111561117557600080fd5b611181888389016110fe565b9096509450602087013591508082111561119a57600080fd5b506111a7878288016110fe565b95989497509550505050565b80356001600160a01b03811681146111ca57600080fd5b919050565b803563ffffffff811681146111ca57600080fd5b60008083601f8401126111f557600080fd5b50813567ffffffffffffffff81111561120d57600080fd5b6020830191508360208260051b850101111561114057600080fd5b600080600080600080600060c0888a03121561124357600080fd5b61124c886111b3565b965061125a602089016111b3565b95506040880135945061126f606089016111cf565b93506080880135925060a088013567ffffffffffffffff81111561129257600080fd5b61129e8a828b016111e3565b989b979a50959850939692959293505050565b600080600080608085870312156112c757600080fd5b6112d0856111b3565b93506112de602086016111b3565b9250604085013591506060850135600381106112f957600080fd5b939692955090935050565b6000806000806000806080878903121561131d57600080fd5b611326876111cf565b955060208701359450604087013567ffffffffffffffff8082111561134a57600080fd5b6113568a838b016110fe565b9096509450606089013591508082111561136f57600080fd5b5061137c89828a016111e3565b979a9699509497509295939492505050565b6000602082840312156113a057600080fd5b6113a9826111b3565b9392505050565b60005b838110156113cb5781810151838201526020016113b3565b838111156113da576000848401525b50505050565b600081518084526113f88160208601602086016113b0565b601f01601f19169290920160200192915050565b84815283602082015260ff83166040820152608060608201526000610cad60808301846113e0565b634e487b7160e01b600052603260045260246000fd5b634e487b7160e01b600052601160045260246000fd5b60006001600160a01b038281168482168083038211156114825761148261144a565b01949350505050565b600381106114a957634e487b7160e01b600052602160045260246000fd5b9052565b6001600160a01b038616815260a060208083018290526000916114d2908401886113e0565b86604085015283810360608501528086518083528383019150838160051b84010184890160005b8381101561152757601f198684030185526115158383516113e0565b948701949250908601906001016114f9565b50508095505050505050610cad608083018461148b565b60006020828403121561155057600080fd5b5051919050565b81835260006001600160fb1b0383111561157057600080fd5b8260051b8083602087013760009401602001938452509192915050565b63ffffffff8616815284602082015260018060a01b038451166040820152602084015160608201526040840151608082015260c060a082015260006115d660c083018486611557565b979650505050505050565b6000602082840312156115f357600080fd5b815180151581146113a957600080fd5b63ffffffff861681528460208201526080604082015260018060a01b03845116608082015260006020850151604060a084015261164360c08401826113e0565b90508281036060840152611658818587611557565b98975050505050505050565b60008261168157634e487b7160e01b600052601260045260246000fd5b500490565b8183823760009101908152919050565b6000828210156116a8576116a861144a565b500390565b6001600160a01b0386811682528581166020830152841660408201526060810183905260a0608082018190526000906115d6908301846113e0565b600082516116fa8184602087016113b0565b9190910192915050565b60608152600061171760608301866113e0565b828103602084015261172981866113e0565b90508281036040840152610cad81856113e056fe8e94fed44239eb2314ab7a406345e6c5a8f0ccedf3b600de3d004e672c33abf4a2646970667358221220d7d07dba85118cc56bca35ac1cbd0071478de88a1eeadc0c6b43024a63147c8e64736f6c63430008090033",
  "linkReferences": {},
  "deployedLinkReferences": {}
}